:020000040800F2
:1000000000200020291E0008BD1D0008C51D000895
:1000100000000000000000000000000000000000E0
:10002000000000000000000000000000CD1D0008DE
:100030000000000000000000D71D0008E11D0008BE
:10004000791E0008791E0008791E0008791E000834
:10005000791E0008EF1D0008791E0008791E0008AF
:10006000791E0008051E0008791E0008791E000888
:10007000791E0008791E000800000000791E0008A3
:1000800000000000791E00080000000000000000D1
:10009000791E000800000000791E0008791E000883
:1000A000791E0008791E0008791E0008791E0008D4
:1000B000791E0008791E000800000000791E000863
:1000C00010B5064C2378002B07D1054B002B02D02E
:1000D000044800E000BF0123237010BD1000002081
:1000E0000000000000410008044B10B5002B03D0B5
:1000F0000349044800E000BF10BDC04600000000F6
:100100001400002000410008002243088B4274D3F1
:1001100003098B425FD3030A8B4244D3030B8B4208
:1001200028D3030C8B420DD3FF22090212BA030C11
:100130008B4202D31212090265D0030B8B4219D3F2
:1001400000E0090AC30B8B4201D3CB03C01A524112
:10015000830B8B4201D38B03C01A5241430B8B425A
:1001600001D34B03C01A5241030B8B4201D30B0343
:10017000C01A5241C30A8B4201D3CB02C01A52416A
:10018000830A8B4201D38B02C01A5241430A8B422D
:1001900001D34B02C01A5241030A8B4201D30B0216
:1001A000C01A5241CDD2C3098B4201D3CB01C01A30
:1001B000524183098B4201D38B01C01A524143093A
:1001C0008B4201D34B01C01A524103098B4201D328
:1001D0000B01C01A5241C3088B4201D3CB00C01A95
:1001E000524183088B4201D38B00C01A524143080D
:1001F0008B4201D34B00C01A5241411A00D2014632
:10020000524110467047FFE701B5002000F0F0F8BA
:1002100002BDC0460029F7D076E7704703460B437E
:100220007FD4002243088B4274D303098B425FD3EF
:10023000030A8B4244D3030B8B4228D3030C8B421B
:100240000DD3FF22090212BA030C8B4202D3121201
:10025000090265D0030B8B4219D300E0090AC30BD6
:100260008B4201D3CB03C01A5241830B8B4201D383
:100270008B03C01A5241430B8B4201D34B03C01A6C
:100280005241030B8B4201D30B03C01A5241C30AE4
:100290008B4201D3CB02C01A5241830A8B4201D355
:1002A0008B02C01A5241430A8B4201D34B02C01A3F
:1002B0005241030A8B4201D30B02C01A5241CDD2E4
:1002C000C3098B4201D3CB01C01A524183098B422F
:1002D00001D38B01C01A524143098B4201D34B0118
:1002E000C01A524103098B4201D30B01C01A52417B
:1002F000C3088B4201D3CB00C01A524183088B4202
:1003000001D38B00C01A524143088B4201D34B00EA
:10031000C01A5241411A00D201465241104670475C
:100320005DE0CA0F00D04942031000D34042534061
:1003300000229C4603098B422DD3030A8B4212D321
:10034000FC22890112BA030A8B420CD38901921153
:100350008B4208D3890192118B4204D389013AD090
:10036000921100E08909C3098B4201D3CB01C01A65
:10037000524183098B4201D38B01C01A5241430978
:100380008B4201D34B01C01A524103098B4201D366
:100390000B01C01A5241C3088B4201D3CB00C01AD3
:1003A000524183088B4201D38B00C01A5241D9D2EB
:1003B00043088B4201D34B00C01A5241411A00D26C
:1003C0000146634652415B10104601D34042002B68
:1003D00000D54942704763465B1000D3404201B5E7
:1003E000002000F005F802BD0029F8D016E770479C
:1003F0007047C046844608006146FFE71FB500F01D
:100400006FFC002801D40021C8421FBD10B500F0C8
:10041000EFFB4042013010BD10B500F061FC002838
:1004200001DB002010BD012010BDC04610B500F05A
:1004300057FC002801DD002010BD012010BDC04682
:1004400010B500F0FDFB002801DC002010BD0120EC
:1004500010BDC04610B500F0F3FB002801DA002003
:1004600010BD012010BDC046002B11D1002A0FD1B4
:10047000002900D1002802D00021C943080007B498
:10048000024802A14018029003BDC04665FFFFFF6D
:1004900003B4684601B5029800F034F8019B9E460B
:1004A00002B00CBC7047C046F0B5CE469946030C6E
:1004B0009C46130447461B0C1D000E0061460404B5
:1004C000240C80B50700100C4B4365434143604347
:1004D0002C0CC01824188C46A34203D980235B023D
:1004E0009846C444494679435643230C2D042D0CA9
:1004F0008919634424046019C918C0BCB946B046C0
:10050000F0BDC046F0B557464E464546DE46E0B51E
:1005100004000D009246994683B08B4230D82DD00E
:100520004946504600F076FF29000600200000F002
:1005300071FF331A9846203B34D49B4653465A46A3
:10054000934042461F00534693401E00AF423BD8A3
:10055000AF4200D179E05B46A41BBD41002B00DA1D
:1005600076E0002200230092019301235A46934033
:100570000193012342469340009329E08242CFD960
:1005800000220023009201930C9B002B01D01C60E1
:100590005D600098019903B0F0BCBB46B246A94625
:1005A000A046F0BD42469B4620239B1A5246DA40A5
:1005B000414613004A468A40170042461F435346AD
:1005C00093401E00AF42C3D9002200230092019342
:1005D0004346002BD8D0FB0772081A4346467B08D7
:1005E0000EE0AB4201D1A2420CD8A41A9D410120D9
:1005F00024196D410021013E24184D41002E06D0E2
:10060000AB42EED9013E24196D41002EF8D100987D
:1006100001995B4600196941002B24DB2B005A46E7
:100620004446D3402A00E2401C005B461500002BE4
:100630002ADB26009E40330026004746BE4032009B
:10064000801A9941009001919EE7A342BCD882E7AD
:100650004246202300219B1A002200910192012290
:10066000DA40019285E7424620239B1A2A0046463B
:100670009A402300F340444613432A00E2401C0002
:100680005B461500002BD4DA42462F0020232600BB
:1006900097409B1ADE403B003343CDE7F8B5CE468A
:1006A000474643025A0A4E024500C40F480091468D
:1006B0002D0E720A000E944680B59B09C90FB6092B
:1006C0002A1A8C4221D0002A0DDD00282DD1002EBF
:1006D00000D18DE0511E012A00D11DE1FF2A00D179
:1006E000ABE00A0027E0002A4DD0421B002D00D0CD
:1006F000CCE0002B00D179E0541E012A00D128E182
:10070000FF2A00D197E02200C5E0002A00DC96E035
:1007100000284FD0FF2D00D18FE08021C9040E4367
:100720001B2A51DD2A00013318E0FF2D00D184E09F
:100730008021C9040E4301211B2A08DC310020203E
:10074000D140821A96403200501E824111435B1AFA
:100750005A0159D407212A00194049D00F211940C4
:10076000042900D00433590142D5501CFE2A3AD046
:100770009B01C0B25B0AC0051843E4072043C0BC1C
:10078000B946B046F8BDFE2080466F1C380047468B
:10079000074200D08EE0002D00D0B4E0002B00D145
:1007A000DBE0002E6CD0981B450100D4F7E00C0074
:1007B000F31A3DE0002E1BD0511E012A00D182E029
:1007C000FF2A3AD00A00ABE731002020D140821A3C
:1007D00096403200501E82410A439B185A01B9D5F7
:1007E0006A1CFE2D75D1FF200023C4E70C003300E6
:1007F000DB08FF2A46D1002BF5D08022D203134319
:100800005B02FF205B0AB6E79F01BF09380000F0DA
:10081000E3FD05388740854224DC3B002021421B54
:100820000132D3408A1A97407A1E974100223B43F7
:10083000590793D197E70C003300DB08DBE7002A68
:1008400014D0421B002D4BD1002BD0D0511E012AB9
:1008500000D19EE0FF2AEFD00A001B2A5FDD0200D4
:10086000731C7BE7504B2A1A3B40E1E7FE216A1CD0
:1008700011423BD1002D5DD1002B7FD0002E7FD1C6
:100880000022DB085B025B0AD0B274E7FF28D2D0FB
:100890008024E404234301241B2A07DC1C002025B8
:1008A000D440AA1A93405A1E93411C43331B05009F
:1008B0000C004DE79F1B7A0122D4002FA6D1002403
:1008C0000020002357E79B1901250132590100D46C
:1008D00040E70121354819405B0803400B43A7E777
:1008E000FF28A9D08021C9040B43B6E7FF2A00D115
:1008F00079E79B195B08590700D02FE7DB08C1E7B0
:100900000C00F71A82E7002B2CD1002E93D1802304
:100910000024FF20DB032EE701259B1B18E71900AD
:100920002025D140AA1A93405A1E93410B4305003B
:100930009B1953E7002B00D17EE7002E00D17CE706
:100940008022D203914502D3944500D23300DB08C4
:1009500053E70C00F31A0135FAE6002EAFD00C0075
:1009600033008DE7002E00D167E78022D203914546
:10097000EDD39445EBD20C003300E8E733007FE77A
:100980009B1900225901B9D5074A1340DB080122FF
:1009900078E79B190132013559019AD4DAE6031E32
:1009A0008DD0DB086EE7C046FFFFFFFBFFFFFF7D3A
:1009B000F0B54F464646D6464402C0B547000E1C29
:1009C000640A3F0EC50F002F3CD0FF2F42D00023FA
:1009D000802299469A46E400D20414437F3F730272
:1009E0005B0A984673001B0EF60F002B1BD0FF2BE3
:1009F00013D042468021D200C9041143884600200A
:100A00007F3B2900FF1A4B467140C9B20F2B00D91A
:100A1000B5E0744A9B00D3589F464346002B3FD114
:100A2000FF3F023303E04346002B2DD10123290071
:100A30004A467140C9B21A430E2A38D86A48920011
:100A400082589746002C13D104239946033B002774
:100A50009A46C4E7002C05D108239946063BFF2798
:100A60009A46BCE70C239946093BFF279A46B6E70E
:100A7000200000F0B1FC7627431F9C4000237F42FA
:100A800099469A463F1AAAE7404600F0A5FC42461E
:100A9000431F9A4076235B421B1A90460020B0E722
:100AA00003234A461A4391460320FC33A9E70D006D
:100AB000FF200022C005ED0710432843E0BCBA46E2
:100AC000B146A846F0BD0D0000200022F2E75346D3
:100AD000022BEDD0032B33D0A046012B05D10020F3
:100AE0000022E7E7350003287AD03B007F33002B54
:100AF0002DDD4246520707D00F2241460A40042A04
:100B000002D004229446E0444246120105D54246F2
:100B1000364B1A403B0090468033FE2BC8DC4246E1
:100B20009201520AD8B2C5E780220025FF20D203E5
:100B3000C0E78022D203144202D04346134249D078
:100B40008022D20322435202FF20520AB2E701223E
:100B5000D31A1B2BC3DC4246DA4043469E37BB40C8
:100B6000591E8B411A43530704D00F231340042B03
:100B700000D00432530129D5012000229AE74246D1
:100B800063015501AB4215D21B200022013F012613
:100B90001C0052005B00002C01DB9D4201D85B1B56
:100BA000324301380028F3D1581E8341134398463D
:100BB0000D009AE71A2001225B1BE8E7023B5A422C
:100BC00053415B4235000022D8B273E79201002006
:100BD000520A6FE71A4352023500FF20520A69E7B2
:100BE0004446ADE71841000858410008FFFFFFF7F1
:100BF00070B542004E024C0045026D0A120EC30F42
:100C0000760A240EC90FFF2A10D0FF2C0CD0012029
:100C1000A2420AD1B54208D18B420FD0002A04D19A
:100C20002800431E984100E0012070BD0120FF2CE8
:100C3000FBD13543F9D14B401800F6E70020F4E72B
:100C400030B5420044024D02C30F4800640A120E40
:100C50006D0A000EC90FFF2A19D0FF280BD0002AF9
:100C60001ED100280BD1002D27D0002C34D1002913
:100C70002FD0080030BD002D28D1002A01D1002C32
:100C8000F5D08B4207D1002B23D01800F2E7002CBF
:100C90001CD1FF2814D0581E022318400138E9E760
:100CA0000028F8D08B42F6D18242F4DCEBDBAC4278
:100CB000F1D80020AC42DDD2E5E7002CDAD0EAE73B
:100CC000002D03D18B42E6D10020D3E70220404221
:100CD000D0E701204042CDE78B42E8D0DBE7C046B9
:100CE00030B5420044024D02C30F4800640A120EA0
:100CF0006D0A000EC90FFF2A1AD0FF280ED0002A55
:100D00001ED100280ED1002D2AD0002C0CD08B42F1
:100D10001DD0581E02231840013810E0002D0DD1BF
:100D2000002A20D1002C1ED1002923D0080006E083
:100D3000002C03D1FF28ECD1002D17D0022030BDAC
:100D40000028E6D08B42E4D18242E2DC04DBAC42F4
:100D5000DFD80020AC42F2D2002B0BD01800EEE717
:100D6000002CECD0D5E78B42D3D1F5E700208B42A5
:100D7000E5D0CEE701204042E1E7C046F0B54F465E
:100D80004646D64643025B0A4500C0B599460F1C4D
:100D90002D0EC60F002D00D188E0FF2D00D18DE073
:100DA0008022DB00D2041A430023914698469A46DB
:100DB0007F3D7C027B00640A1B0EFF0F002B68D076
:100DC000FF2B21D08022E400D204144342467F3B13
:100DD0005B1900215D1C0A2A2EDC7E404246022A55
:100DE00023DC013A012A00D9BDE002296ED0012995
:100DF0002CD100200022C005F60710433043E0BC90
:100E0000BA46B146A846F0BD2B00FF33002C65D092
:100E10000322414611433200013588467A40FF35AE
:100E20000A2900DDD8E01600032140460122824055
:100E3000A620C000024220D05346022B46D0032BEE
:100E400000D1BBE051464C460129D2D02B007F3364
:100E5000002B70DD620704D00F222240042A00D04C
:100E60000434220103D5634B1C402B008033FE2B3E
:100E70002CDCA201520AD8B2BDE7902080000242C9
:100E800027D1B938FF3810426DD03E00A1468A46BE
:100E9000D2E7002C41D1012342461A4390462B0051
:100EA000424601215D1C0A2A97DDC5E7002B26D1A9
:100EB00004239846033B00259A467AE7002B18D175
:100EC00008239846063BFF259A4672E7FF2000223A
:100ED00091E780220026FF20D2038CE741460222C0
:100EE000013511438846FF350A29A5DC02217E40E1
:100EF00074E70C239846093BFF259A4659E71800EA
:100F000000F06AFA4A46431F76259A4000236D4254
:100F1000914698469A462D1A4BE7200000F05CFA5D
:100F20004246431F9C402B1A763B00215D1C0A2A37
:100F300000DC52E780E70122D31A1B2B00DD58E7C3
:100F40009E352200AC40DA40631E9C412243530789
:100F500004D00F231340042B00D00432530137D5A3
:100F60000120002247E7210C4A462404240C2700D4
:100F7000100C1204120C44435743484351433A0C9B
:100F800009195218944203D9802149028C466044C1
:100F90003F0411043F0CC9198C01671EBC41120C9F
:100FA000890E12180C439201144312010ED501232D
:100FB00062081C40144349E73E00A14680224B468C
:100FC000D2031A435202FF20520A14E71D003DE7E4
:100FD00092010020520A0EE70F29EDD180224B46E4
:100FE000D2031342EAD01442E8D13E00FF2022434C
:100FF00001E7C046FFFFFFF7F8B54746CE464E0271
:1010000043024500720AC40F480080B594465F0A47
:101010002D0E9B09000EC90FB609FF2824D001220E
:1010200051402A1A8C420FD0002A00DC6AE10028C5
:1010300035D1002E00D1A2E0511E012A00D124E1B9
:10104000FF2A21D00A002FE0002A00DC67E10028F7
:101050005ED0FF2D18D08021C9040E431B2A00DC6E
:1010600076E02A00013332E02A00FF3A9146002E52
:1010700042D08C4255D04A46002A00D19CE0002D37
:1010800000D177E00C003300DB08002B00D16EE0CC
:101090008022D20313435B02FF205B0A24E0FF2D72
:1010A000F2D08021C9040E4301211B2A08DC310043
:1010B0002020D140821A96403200501E82411143B6
:1010C0005B1A5A0160D407212A00194057D00F211A
:1010D0001940042900D00433590150D5501CFE2A70
:1010E00045D09B01C0B25B0AC0051843E40720430A
:1010F000C0BCB946B046F8BD012251408C42BAD1BD
:101100004A46002A10D0002D00D198E00023BBE70A
:10111000002E34D0511E012A6ED0FF2AB4D00A000E
:101120009CE7002A00D088E0FE206A1C104200D014
:1011300092E0002D00D0A4E0002B00D1CBE0002EE7
:1011400000D0CAE00022DB085B025B0AD0B2CBE72A
:1011500031002020D140821A96403200501E824138
:101160000A439B185A01AED56A1CFE2D4AD1FF20B6
:101170000023B9E7FF22002B4BD10C003300DB0822
:10118000FF2A00D181E7DFE79F01BF09380000F0A7
:1011900023F905388740854221DC3B002021421B92
:1011A0000132D3408A1A97407A1E974100223B436E
:1011B000590700D08BE78FE7FE206A1C104212D13E
:1011C000002D52D1002B7CD0002EBBD09A1B500199
:1011D00000D48BE001240022F31A0C40E8E7564BC0
:1011E0002A1A3B40E4E79F1B7A0146D4002FCDD159
:1011F00000240020002377E79B19012501325901C3
:1012000000D460E701214D4819405B0803400B43BF
:10121000CEE7571E012A5AD00C00FF2A33D00122F4
:101220001B2F07DC2021C91B1A008B40FA40591ED6
:101230008B411A430500B31A43E7002D23D1FF2247
:10124000002B9BD0511E012AD6D0FF2A1BD01B2970
:101250002CDD0200731C3AE7FF2A88D09B195B083B
:10126000590700D033E7DB086EE7002B10D1002EC2
:1012700043D0012433000C4006E70124F71A0C4048
:1012800084E7002B04D13300FEE601259B1B18E701
:10129000002E00D1F8E68022D203974204D3944571
:1012A00002D2012433000C40DB08F1E61A002025AD
:1012B000CA40691A8B40591E8B41134305009B1984
:1012C00050E7002E94D0012433000C403AE70C0084
:1012D0000125F31AF5E6330034E79B190022590182
:1012E000C1D5154A1340DB0801222DE7002A00D1A1
:1012F0007EE713000022DB0826E780230024FF207E
:10130000DB03F1E6002A00D156E7471B3A00002D27
:1013100000D130E78022D2040C0013437FE7002A7B
:1013200000D101E7411B002D01D10A0088E780228E
:10133000D20413438BE7C046FFFFFFFBFFFFFF7D97
:1013400070B5002813D0C317C5185D40C40F28001E
:1013500000F042F89E2301001B1A962B0FDC082890
:1013600034D008398D406D026D0AD8B202E00024F5
:1013700000200025C0052843E407204370BD992BB9
:1013800016DC421F052800D095402A001148024073
:101390006E0709D00F263540042D05D004325501C3
:1013A00002D59F2302405B1A9201550AD8B2E1E7A9
:1013B0000522121A2800D040020008001B30854088
:1013C0002800451EA84102431500DEE76D02962065
:1013D0006D0ACFE7FFFFFFFB1C2101231B0498428E
:1013E00001D3000C10391B0A984201D3000A0839B6
:1013F0001B09984201D30009043902A2105C40186D
:101400007047C04604030202010101010000000010
:101410000000000010B5002903D1FFF7DDFF2030E8
:1014200002E00800FFF7D8FF10BDC04680B582B0CB
:1014300000AF786000F04EFE02007B681A60C04684
:10144000BD4602B080BD80B582B000AF7860396023
:1014500000F040FE02007B681B68D31A3A689A428B
:1014600001D8012300E000231800BD4602B080BD72
:1014700080B500AF064B0021180001F0F9F9044BCC
:10148000180000F055FE00F005F8C046BD4680BDCE
:101490002808002080B500AF0449054B032218003E
:1014A00000F0BAFFC046BD4680BDC0462C000020FB
:1014B0002808002080B500AF064B1B881800FFF7F6
:1014C0003FFF031C0449181CFFF758FC031C181CA1
:1014D000BD4680BD2C000020A306533B80B500AF65
:1014E000094B5B881800FFF72BFF031C0749181CEA
:1014F000FFF744FC031C0649181CFFF73FFC031CC4
:10150000181CBD4680BDC0462C000020A306533BDE
:101510000000C04080B500AF044B0122012118003B
:1015200001F06FFEC046BD4680BDC04600040050BD
:1015300080B500AF044B00220121180001F061FECC
:10154000C046BD4680BDC0460004005080B500AF17
:10155000034B0121180001F071FEC046BD4680BD5D
:101560000004005080B500AF154B5B78002B07D10D
:10157000144B5B78002B03D1134B1B78002B03D14A
:10158000124B00221A7017E00D4B1B78002B07D06E
:101590000C4B1B78002B03D00C4B01221A700BE074
:1015A000074B1B78002B07D0064B1B78002B03D171
:1015B000064B02221A70FFE7C046BD4680BDC046FA
:1015C000180800201C08002024080020000000202B
:1015D00080B500AFFFF7C6FF1C4B1B78032B08D06C
:1015E00030DC022B1AD02DDC002B05D0012B06D0CD
:1015F00028E0FFF79DFF25E0FFF78CFF22E0144B6A
:101600001B685A1C124B1A60114B1B68632B16D9AE
:10161000FFF79CFF0E4B00221A6010E00C4B1B687A
:101620005A1C0B4B1A600A4B1A68FA235B009A4249
:1016300007D3FFF78BFF064B00221A6001E0C0467C
:1016400000E0C046C046BD4680BDC0460000002048
:101650003400002080B584B000AF7860184B1A6861
:10166000184B92007968D150154B1B680133FA2250
:1016700051001800FEF7B8FE0B001A00104B1A605C
:101680000023FB600023BB600CE00E4BBA689200A5
:10169000D358191CF868FFF701F8031CFB60BB68FE
:1016A0000133BB60BA68FA235B009A42EDDB06495E
:1016B000F868FFF77DF9031C181CBD4604B080BD17
:1016C00008080020380000200000FA4380B582B0EE
:1016D00000AFFFF703FF021C0A4B1A60FFF7EAFE98
:1016E000031C7B607B683B60064B1B683968181CD9
:1016F000FFF744FB031C1A1C024B5A60C046BD4650
:1017000002B080BD0C08002080B582B000AFFFF7AA
:10171000DDFF0B4B5B68191C0A48FFF76DFC031CCF
:101720007B6000217868FEF777FE031E01D000235E
:101730007B60034B7A689A60C046BD4602B080BDAC
:101740000C0800200000904180B586B000AF020078
:10175000FB1D1A70BB1D0A1C1A7000237B6112212D
:101760007B1800221A800023FB60FB1D1B78022BD4
:1017700007D1184B7B617B1808221A80164BFB603F
:101780000BE0FB1D1B78012B07D1124B7B61122351
:10179000FB1804221A80114BFB607B69002B14D0CC
:1017A000FB68002B11D0BB1D1B78013B5A425341F3
:1017B000DBB21A001223FB1819887B69180001F0AC
:1017C00020FDFB68BA1D12781A70C046BD4606B0EF
:1017D00080BDC04600040050180800201C080020EE
:1017E000B0B500AFFFF77AFE031C0122141C0849B4
:1017F000181CFEF72FFE031E01D100231C1CE3B2B0
:1018000001225340DBB2DBB21800BD46B0BDC0467A
:1018100066663E41B0B500AFFFF776FF3A4B9B6876
:10182000181CFFF717FF021C384B1A60374B1B6858
:101830003749181CFEF7FAFD031E03D0354B1B7801
:10184000012B03D0334B5B78002B04D00021012007
:10185000FFF77AFF13E02D4B1B682F49181CFEF78A
:10186000EFFD031E0BD02B4B1B78002B07D1294B10
:101870005B78002B03D101210120FFF765FF224B8C
:101880009B68181CFFF7E6FE021C204B1A601F4BDA
:101890001B682249181CFEF7C9FD031E03D0204B0C
:1018A0001B78012B03D01E4B5B78002B04D000214A
:1018B0000220FFF749FF13E0144B1B681949181C5D
:1018C000FEF7BEFD031E0BD0154B1B78002B07D176
:1018D000134B5B78002B03D101210220FFF734FF6B
:1018E0000A4B1B680122141C0021181CFEF7A8FDDE
:1018F000031E01D100231C1CE3B21A000A4B1A700C
:10190000C046BD46B0BDC0460C08002020080020DF
:10191000CDCC9C401C0800203333A3409A99394019
:1019200018080020666646402408002080B582B072
:1019300000AF0200BB1D1A80BB1D1B88022B03D108
:10194000074B01221A7006E0BB1D1B88012B02D138
:10195000044B01221A70C046BD4602B080BDC0468D
:10196000250800202608002090B583B000AF1D4B4D
:101970001B78002B16D01B4B00221A700F2000F092
:10198000B3FBFC1DA023DB050221180001F01CFCA9
:1019900003002370FB1D1B785A425341DBB21A002F
:1019A000114B5A70114B1B78002B16D00F4B002295
:1019B0001A700F2000F098FBBC1DA023DB0501214D
:1019C000180001F001FC03002370BB1D1B785A4274
:1019D0005341DBB21A00064B5A70C046BD4603B0F5
:1019E00090BDC046250800201C08002026080020C5
:1019F0001808002080B582B000AF3B001800082313
:101A00001A00002102F050FB374B384A1A60364B5F
:101A10000022DA63344B902292035A60324B082240
:101A20009A60314B07229A632F4B01221A612E4B89
:101A30000022DA602C4B2022012199542A4B2122CA
:101A400000219954284B00229A62274BC222FF3270
:101A50005A62254B2C2201219954234B04225A61AE
:101A6000214B00221A63204B00229A611E4B012257
:101A70005A631D4B0022DA611B4B180000F058FB23
:101A8000031E01D000F0F9F93B00194A1A603B002F
:101A9000802252015A603A00134B1100180000F0E6
:101AA00055FD031E01D000F0E8F93B00114A1A6011
:101AB0003A000D4B1100180000F048FD031E01D044
:101AC00000F0DBF93B000C4A1A603A00064B1100AB
:101AD000180000F03BFD031E01D000F0CEF9C04617
:101AE000BD4602B080BDC046280800200024014049
:101AF000040000080800000C1000001090B589B028
:101B000000AF78600C243B19180014231A00002140
:101B100002F0CAFA7B681B682A4A93424DD12A4BCD
:101B20005A6B294B802189000A435A63264BDA6A93
:101B3000254B01210A43DA62234BDB6A0122134061
:101B4000BB60BB683B191C221A603B1903225A6018
:101B50003B1900229A603A19A023DB0511001800F6
:101B600001F0BCF9194B1A4A1A60184B00225A604E
:101B7000164B00229A60154B0022DA60134B80222C
:101B80001A61124B802252005A61104B8022D200FF
:101B90009A610E4B2022DA610C4B00221A620B4B29
:101BA000180000F0E1FF031E01D000F066F97B6829
:101BB000064ADA64054B7A689A62C046BD4609B0A7
:101BC00090BDC0460024014000100240840800205F
:101BD0000800024080B582B000AF084B1A6B074B7B
:101BE00001210A431A63054B1B6B012213407B60E2
:101BF0007B68C046BD4602B080BDC04600100240B2
:101C000090B589B000AF0C243B19180014231A00BA
:101C1000002102F049FA5C4BDA6A5B4B04210A436B
:101C2000DA62594BDB6A04221340BB60BB68564B37
:101C3000DA6A554B01210A43DA62534BDB6A01220F
:101C400013407B607B68504BDA6A4F4B02210A439A
:101C5000DA624D4BDB6A022213403B603B684B4B20
:101C600000220D21180001F0CCFA80231902A023D4
:101C7000DB050022180001F0C4FA3B19C022120251
:101C80001A603B1903225A603B1900229A603B19E3
:101C90003F4A1900100001F021F93B1903221A6094
:101CA0003B19C42292035A603B1901229A603A19E7
:101CB000A023DB051100180001F010F93B192022C8
:101CC0001A603B1900225A603B1900229A603A19A7
:101CD000A023DB051100180001F000F93B19FE22DA
:101CE00052011A603B1903225A603B1900229A6084
:101CF0003A19A023DB051100180001F0EFF83B1999
:101D00000D221A603B1901225A603B1902229A6087
:101D10003B190022DA603B191C4A1900100001F03F
:101D2000DDF821007B18F92252001A600C003B19E3
:101D300003225A603B1900229A603B19134A19008A
:101D4000100001F0CBF821007B18802212021A60EB
:101D50007B1801225A607B1800229A607B180022AF
:101D6000DA607A18A023DB051100180001F0B6F83C
:101D700000220021052000F0C5FE052000F0D7FE5E
:101D8000C046BD4609B090BD00100240000400509E
:101D90000008005080B500AF074B5A6B064B01217D
:101DA0000A435A63044B9A6B034B802149050A434B
:101DB0009A63C046BD4680BD0010024080B500AFAA
:101DC000C046FDE780B500AFC046FDE780B500AF77
:101DD000C046BD4680BD80B500AFC046BD4680BD93
:101DE00080B500AF00F064F9C046BD4680BD80B547
:101DF00000AF012001F03EFA022001F03BFAC0469C
:101E0000BD4680BD80B500AF034B180000F08AFFCF
:101E1000C046BD4680BDC0468408002080B500AFE6
:101E2000C046BD4680BD00000D488546FFF7F6FF61
:101E30000C480D490D4A002302E0D458C450043325
:101E4000C4188C42F9D30A4A0A4C002301E01360FB
:101E50000432A242FBD302F02FF900F0AFF8FEE704
:101E6000002000200000002010000020C0410008D9
:101E700010000020D4080020FEE780B500AF72B645
:101E8000C046C046FDE780B500AF00220021092012
:101E900000F038FE092000F04AFE002200210F2049
:101EA00000F030FE0F2000F042FEC046BD4680BD6F
:101EB00090B59DB000AF38243B19180038231A00A4
:101EC000002102F0F1F82423FB18180014231A0053
:101ED000002102F0E9F83B1D180020231A00002120
:101EE00002F0E2F8294B1B68294A1A40274B80214F
:101EF00009010A431A6021007B1802221A607B182C
:101F00000122DA607B1810221A617B1802229A6281
:101F10007B180022DA627B188022D2021A637B18B7
:101F20008022D2035A637B18180001F0BFF9031E08
:101F300001D0FFF7A2FF24217B180F221A607B1823
:101F400003225A607B1800229A607B180022DA6014
:101F50007B1800221A617B180121180001F06AFD2C
:101F6000031E01D0FFF789FF3B1D08221A603B1DAD
:101F700000225A613B1D180001F04AFF031E01D0E8
:101F8000FFF77BFFC046BD461DB090BD007000400E
:101F9000FFE7FFFF80B500AF00F036F8FFF720FF46
:101FA000FFF786FFFFF76FFFFFF72AFEFFF712FE2E
:101FB000FFF720FDC046BD4680BD000080B500AFE4
:101FC000FFF7E8FFFFF754FA0E4B1800FFF72EFA61
:101FD0000CE00C4B64211800FFF735FA031E05D006
:101FE000084B1800FFF722FAFFF7B0FAFFF7F8FBEB
:101FF000031EEED1FFF7B8FCFFF7EAFAFFF70AFC81
:10200000C046F7E7CC08002080B582B000AFFB1DCA
:1020100000221A700B4B1A680A4B40210A431A60BF
:10202000032000F011F8031E03D0FB1D01221A70DB
:1020300001E0FFF7AFFEFB1D1B781800BD4602B0A4
:1020400080BDC0460020024090B583B000AF7860EC
:10205000144B1C68144B1B781900FA239800FEF7E8
:1020600053F8030019002000FEF74EF80300180093
:1020700000F06DFD031E01D001230FE07B68032BF0
:102080000BD8796801235B420022180000F03AFD6A
:10209000064B7A681A60002300E001231800BD4651
:1020A00003B090BD040000200C00002008000020B8
:1020B00080B500AF054B1B781A00054B1B68D21882
:1020C000034B1A60C046BD4680BDC0460C000020D0
:1020D000D008002080B500AF024B1B681800BD4639
:1020E00080BDC046D008002080B584B000AF7860C5
:1020F000FFF7F0FF0300BB607B68FB60FB68013308
:1021000005D00A4B1B781A00FB689B18FB60C04681
:10211000FFF7E0FF0200BB68D31AFA689A42F7D8CB
:10212000C046C046BD4604B080BDC0460C0000207D
:1021300080B582B000AF78607B68002B01D10123AD
:1021400059E17B685B6D002B0AD17B6800229A65A0
:102150007B685022002199547B681800FFF7CEFC61
:102160007B685B6D10221340102B05D07B681B68C9
:102170009B68042213400BD07B685B6D10221A43CE
:102180007B685A657B68502200219954012332E113
:102190007B685B6D9A4A134002221A437B685A653A
:1021A0007B681B689B6803221340012B08D17B6866
:1021B0001B681B6801221340012B01D1012300E0A1
:1021C0000023002B49D17B685A68C0231B069A4222
:1021D0000BD07B685A688023DB059A4205D07B6868
:1021E0005A6880231B069A4211D17B681B681A69C2
:1021F0007B681B68920092081A617B681B681969EA
:102200007B685A687B681B680A431A6114E07B6824
:102210001B681A697B681B68920092081A61794BE7
:102220001A68784B78490A401A60764B19687B68BF
:102230005A68744B0A431A607B681B68DA687B68CB
:102240001B6818218A43DA607B681B68D9687B6841
:102250009A687B681B680A43DA606A4B1A68694BA4
:102260006A490A401A60674B19687B685B6B5A06BB
:10227000644B0A431A607B681B689A6880235B057D
:10228000134008D17B681B689A687B681B688021B3
:1022900049050A439A607B681B68DA687B681B689B
:1022A0005B490A40DA607B681B68D9687B68DA683A
:1022B0007B681B69022B01D1042300E000231A4331
:1022C0007B6820201B5C5B031A437B682C201B5C13
:1022D0005B001A437B681B6B1A437B689B699B03FB
:1022E0001A437B68DB69DB031A437B681B680A437C
:1022F000DA607B685A6AC223FF339A420BD07B684C
:102300001B68D9687B685A6A7B689B6A1A437B683A
:102310001B680A43DA607B6821229B5C012B1AD17F
:102320007B6820229B5C002B09D17B681B68DA68E4
:102330007B681B68802149020A43DA600BE07B68F6
:102340005B6D20221A437B685A657B689B6D012276
:102350001A437B689A657B68DB6B012B1FD17B6816
:102360001B681A697B681B682A490A401A617B68E6
:102370001B6819697B681A6C7B685B6C1A437B6805
:102380009B6C1A437B681B680A431A617B681B6855
:102390001A697B681B6801210A431A610EE07B6899
:1023A0001B681B6901221340012B07D17B681B6846
:1023B0001A697B681B6801218A431A617B681B6864
:1023C0005A697B681B6807218A435A617B681B68CE
:1023D00059697B689A6B7B681B680A435A617B6802
:1023E00000229A657B685B6D0322934301221A43A6
:1023F0007B685A6500231800BD4602B080BDC04608
:10240000FDFEFFFF08270140FFFFC3FFFFFFFFFDA9
:102410001902FEFF03FCFFFF90B587B000AFF86024
:10242000B9607A601723FB1800221A70FB681B68DA
:102430009B68042213405ED1FB6850229B5C012BF9
:1024400001D102235EE0FB68502201219954FB6810
:102450001B68DA68FB681B6801210A43DA60FB68C5
:10246000DB69012B07D01723FC18FB68180000F06C
:10247000F3F8030023701723FB181B78002B3ED1C1
:10248000FB685B6D214A1340802252001A43FB68AF
:102490005A65FB6800229A65FB6850220021995416
:1024A000FB68DB6C1A4ADA62FB68DB6C194A1A6358
:1024B000FB68DB6C184A5A63FB681B681C221A60B5
:1024C000FB681B685A68FB681B6810210A435A6046
:1024D000FB68D86CFB681B6840331900BA687B68DE
:1024E00000F0BAFBFB681B689A68FB681B68042154
:1024F0000A439A6003E01723FB1802221A7017237D
:10250000FB181B781800BD4607B090BDFEF0FFFF1A
:1025100029270008DD270008FB27000880B582B0C6
:1025200000AF7860C046BD4602B080BD80B582B0C5
:1025300000AF7860C046BD4602B080BD80B582B0B5
:1025400000AF7860C046BD4602B080BD80B582B0A5
:1025500000AF786039607B6850229B5C012B01D111
:1025600002236CE07B685022012199547B681B6830
:102570009B68042213400BD07B685B6D20221A43BA
:102580007B685A657B68502200219954012356E0EC
:102590003B685B682C4A934228D07B681B68996A29
:1025A0003B681B685B035A0B7B681B680A439A6293
:1025B0003B681A688023DB02134009D0234B1A685A
:1025C000224B802109040A431A600A2000F030F9E6
:1025D0003B681A6880239B0213402BD01B4B1A6860
:1025E0001A4B8021C9030A431A6023E07B681B68E9
:1025F0009A6A3B681B685B035B0BD9437B681B686B
:102600000A409A623B681A688023DB02134005D0B7
:102610000E4B1A680D4B0E490A401A603B681A6847
:1026200080239B02134005D0084B1A68074B0949C9
:102630000A401A607B685022002199540023180038
:10264000BD4602B080BDC046011000000827014011
:10265000FFFF7FFFFFFFBFFF80B584B000AF786052
:102660000023FB607B681B689B6803221340012BDF
:1026700008D17B681B681B6801221340012B01D124
:10268000012300E00023002B46D17B681B689B6878
:10269000244A13400DD07B685B6D10221A437B687F
:1026A0005A657B689B6D01221A437B689A650123FA
:1026B00033E07B681B689A687B681B6801210A43CA
:1026C0009A60012000F0B4F8FFF704FD0300FB60FE
:1026D0001BE0FFF7FFFC0200FB68D31A0A2B14D99A
:1026E0007B681B681B6801221340012B0DD07B689F
:1026F0005B6D10221A437B685A657B689B6D0122D3
:102700001A437B689A65012307E07B681B681B6896
:1027100001221340012BDCD100231800BD4604B078
:1027200080BDC0461700008080B584B000AF7860DF
:102730007B689B6AFB60FB685B6D5022134041D154
:10274000FB685B6D802292001A43FB685A65FB6848
:102750001B68DA68C0231B0113402ED1FB682022BE
:102760009B5C002B29D1FB681B681B680822134067
:10277000082B22D1FB681B689B680422134010D1F0
:10278000FB681B685A68FB681B680C218A435A6007
:10279000FB685B6D104A134001221A43FB685A65BF
:1027A0000BE0FB685B6D20221A43FB685A65FB68EF
:1027B0009B6D01221A43FB689A65FB681800FFF7BE
:1027C000ADFE05E0FB68DB6C5B6B7A681000984738
:1027D000C046BD4604B080BDFEFEFFFF80B584B09C
:1027E00000AF78607B689B6AFB60FB681800FFF7AE
:1027F0009DFEC046BD4604B080BD80B584B000AF2C
:1028000078607B689B6AFB60FB685B6D40221A43C3
:10281000FB685A65FB689B6D04221A43FB689A6546
:10282000FB681800FFF78AFEC046BD4604B080BDB5
:1028300080B584B000AF78600B4B1B680B49180063
:10284000FDF762FC03001A007B685343FB6002E063
:10285000FB68013BFB60FB68002BF9D1C046C0461A
:10286000BD4604B080BDC0460400002040420F00B9
:1028700080B586B000AF786039601723FB1800225E
:102880001A7000233B610023FB607B6850229B5C35
:10289000012B01D1022383E07B685022012199544E
:1028A0007B681B689B6803221340012B08D17B685F
:1028B0001B681B6801221340012B01D1012300E09A
:1028C0000023002B5BD17B685B6D374A13400222EB
:1028D0001A437B685A657B681B68DB6803221340D8
:1028E000FB607B681B68DA687B681B6803218A438E
:1028F000DA607B681B689A687B681B688021090620
:102900000A439A60FFF7E6FB03003B611DE0FFF717
:10291000E1FB02003B69D31A0A2B16D97B681B68BE
:102920009B68DB0FDA0780231B069A420DD17B6878
:102930005B6D1222934310221A437B685A657B68B1
:1029400050220021995401232AE07B681B689B6870
:10295000DB0FDA0780231B069A42D8D07B681B68FE
:10296000D9687B681B68FA680A43DA607B685B6D2C
:102970000322934301221A437B685A6509E07B686E
:102980005B6D20221A437B685A651723FB180122CE
:102990001A707B685022002199541723FB181B786A
:1029A0001800BD4606B080BDFDFEFFFF80B582B0B9
:1029B00000AF0200FB1D1A70FB1D1B787F2B09D88E
:1029C000FB1D1B781A001F231A40044B0121914064
:1029D0000A001A60C046BD4602B080BD00E100E0BA
:1029E00090B583B000AF02003960FB1D1A70FB1D6B
:1029F0001B787F2B28D82F4AFB1D1B785BB29B08C6
:102A0000C0339B009B58FA1D1278110003220A4024
:102A1000D200FF2191400A00D2431A4011003B68C6
:102A20009B01FF221A40FB1D1B7818000323034063
:102A3000DB009A401F48FB1D1B785BB29B080A43D2
:102A4000C0339B001A5031E01B4AFB1D1B78190054
:102A50000F230B40083B9B0806339B00D31804331D
:102A60001B68FA1D1278110003220A40D200FF21D0
:102A700091400A00D2431A4011003B689B01FF229B
:102A80001A40FB1D1B78180003230340DB009A400B
:102A90000948FB1D1B781C000F232340083B9B08A3
:102AA0000A4306339B00C31804331A60C046BD4670
:102AB00003B090BD00E100E000ED00E080B582B021
:102AC00000AF78607B685A1E80235B049A4201D372
:102AD000012310E00A4B7A68013A5A6001235B42F5
:102AE00003211800FFF77CFF054B00229A60044B7E
:102AF00007221A6000231800BD4602B080BDC04600
:102B000010E000E080B584B000AFB9607A600F21BA
:102B10007B18021C1A70BA687B181B785BB2110014
:102B20001800FFF75DFFC046BD4604B080BD80B50C
:102B300082B000AF0200FB1D1A70FB1D1B785BB258
:102B40001800FFF733FFC046BD4602B080BD80B518
:102B500082B000AF78607B681800FFF7AFFF03001A
:102B60001800BD4602B080BD80B584B000AF78606B
:102B70007B68002B01D1012361E07B681B68324A2E
:102B80009446634414211800FDF7BEFA03009A002E
:102B90007B685A647B682D4A1A647B68252202216F
:102BA00099547B681B681B68FB60FB68284A1340CC
:102BB000FB607B689A687B68DB681A437B681B69EB
:102BC0001A437B685B691A437B689B691A437B687D
:102BD000DB691A437B681B6A1343FA681343FB6083
:102BE0007B681B68FA681A607B689A688023DB013F
:102BF0009A4218D0174B1A687B685B6C1C210B40FB
:102C00000F2199400B00D943124B0A401A60114B17
:102C100019687B685A687B685B6C1C2003409A408B
:102C20000C4B0A431A607B680022DA637B6825221A
:102C3000012199547B682422002199540023180013
:102C4000BD4604B080BDC046F8FFFDBF0000024095
:102C50000F80FFFFA800024080B586B000AFF8608B
:102C6000B9607A603B601723FB1800221A70FB687A
:102C700024229B5C012B01D102234FE0FB6824221C
:102C800001219954FB6825229B5CDBB2012B3AD1D0
:102C9000FB68252202219954FB680022DA63FB6855
:102CA0001B681A68FB681B6801218A431A603B682D
:102CB0007A68B968F86800F0E3F8FB681B6B002BD2
:102CC00008D0FB681B681A68FB681B680E210A4362
:102CD0001A600FE0FB681B681A68FB681B68042118
:102CE0008A431A60FB681B681A68FB681B680A2124
:102CF0000A431A60FB681B681A68FB681B6801219D
:102D00000A431A6007E0FB68242200219954172324
:102D1000FB1802221A701723FB181B781800BD46F7
:102D200006B080BD80B584B000AF78607B681B6C56
:102D30001B68FB607B681B681B68BB607B685B6C07
:102D40001C22134004229A401300FA68134026D034
:102D5000BB680422134022D07B681B681B682022BA
:102D6000134007D17B681B681A687B681B680421C5
:102D70008A431A607B685B6C1C221A407B681B6C60
:102D8000042191400A005A607B681B6B002B00D124
:102D900071E07B681B6B7A68100098476BE07B687A
:102DA0005B6C1C22134002229A401300FA68134005
:102DB0002DD0BB680222134029D07B681B681B689A
:102DC000202213400BD17B681B681A687B681B6844
:102DD0000A218A431A607B682522012199547B6865
:102DE0005B6C1C221A407B681B6C022191400A001C
:102DF0005A607B682422002199547B68DB6A002B8F
:102E000039D07B68DB6A7A681000984733E07B68CA
:102E10005B6C1C22134008229A401300FA6813408E
:102E20002AD0BB680822134026D07B681B681A682A
:102E30007B681B680E218A431A607B685B6C1C22CE
:102E40001A407B681B6C012191400A005A607B6824
:102E50000122DA637B682522012199547B682422B0
:102E6000002199547B685B6B002B05D07B685B6B02
:102E70007A6810009847C046C046BD4604B080BD81
:102E800080B584B000AFF860B9607A603B60FB68E1
:102E90005B6C1C221A40FB681B6C012191400A00EC
:102EA0005A60FB681B683A685A60FB689B68102B85
:102EB00008D1FB681B687A689A60FB681B68BA686F
:102EC000DA6007E0FB681B68BA689A60FB681B68F9
:102ED0007A68DA60C046BD4604B080BD80B586B071
:102EE00000AF7860396000237B610023FB60002322
:102EF0003B614FE13B681B6801217A6991400A0000
:102F00001340FB60FB68002B00D140E13B685B682D
:102F100003221340012B05D03B685B68032213405A
:102F2000022B30D17B689B683B617B695B0003228D
:102F30009A401300DA433B6913403B613B68DA680F
:102F40007B695B009A4013003A6913433B617B68DD
:102F50003A699A607B685B683B6101227B699A40B1
:102F60001300DA433B6913403B613B685B681B0914
:102F700001221A407B699A4013003A6913433B616E
:102F80007B683A695A603B685B6803221340032BF5
:102F900017D07B68DB683B617B695B0003229A404A
:102FA0001300DA433B6913403B613B689A687B69D5
:102FB0005B009A4013003A6913433B617B683A69AE
:102FC000DA603B685B6803221340022B23D17B69E4
:102FD000DA087B6808329200D3583B617B6907228C
:102FE00013409B000F229A401300DA433B691340C1
:102FF0003B613B681A697B6907210B409B009A4043
:1030000013003A6913433B617B69DA087B68083235
:1030100092003969D1507B681B683B617B695B001A
:1030200003229A401300DA433B6913403B613B683B
:103030005B6803221A407B695B009A4013003A697F
:1030400013433B617B683A691A603B685A68C02346
:103050009B02134000D19AE0544B5A6B534B012111
:103060000A435A63524A7B699B0802339B009B5870
:103070003B617B69032213409B000F229A4013009F
:10308000DA433B6913403B617A68A023DB059A422F
:1030900019D07B68474A934213D07B68464A9342D3
:1030A0000DD07B68454A934207D07B68444A9342DF
:1030B00001D1052308E0062306E0032304E00223F0
:1030C00002E0012300E000237A6903210A40920014
:1030D00093403A6913433B6135497B699B0802334E
:1030E0009B003A695A50374B9B683B61FB68DA4357
:1030F0003B6913403B613B685A6880235B03134084
:1031000003D03A69FB6813433B612E4B3A699A60DE
:103110002C4BDB683B61FB68DA433B6913403B6146
:103120003B685A6880239B03134003D03A69FB68CD
:1031300013433B61234B3A69DA60224B5B683B6186
:10314000FB68DA433B6913403B613B685A68802364
:103150009B02134003D03A69FB6813433B61194B50
:103160003A695A60174B1B683B61FB68DA433B695D
:1031700013403B613B685A6880235B02134003D0D5
:103180003A69FB6813433B610E4B3A691A607B69ED
:1031900001337B613B681A687B69DA40131E00D0FB
:1031A000A8E6C046C046BD4606B080BD001002403D
:1031B000000001400004005000080050000C0050C6
:1031C000001C00500004014080B584B000AF78605E
:1031D0000A00BB1C1A807B681B69BA1C128813404A
:1031E00004D00F23FB1801221A7003E00F23FB18F1
:1031F00000221A700F23FB181B781800BD4604B07C
:1032000080BD80B582B000AF786008001100BB1CA3
:10321000021C1A807B1C0A1C1A707B1C1B78002B5A
:1032200004D0BB1C1A887B689A6103E0BB1C1A8817
:103230007B689A62C046BD4602B080BD80B584B04E
:1032400000AF78600A00BB1C1A807B685B69FB607A
:10325000BB1C1B88FA6813401A04FB68DB43B91CCB
:1032600009880B401A437B689A61C046BD4604B08A
:1032700080BD000080B582B000AF0200BB1D1A8087
:10328000094B5B69BA1D1288134008D0064BBA1D62
:1032900012885A61BB1D1B881800FEF747FBC04609
:1032A000BD4602B080BDC04600040140B0B58AB042
:1032B00000AF78607B68002B02D1012300F0AFFBE8
:1032C000CF4BDB680C2213403B62CD4BDA68802386
:1032D0005B021340FB617B681B680122134000D135
:1032E0007EE03B6A082B07D03B6A0C2B12D1FA69AF
:1032F00080235B029A420DD1C14B1A6880239B0246
:10330000134000D16BE07B685B68002B67D1012321
:1033100000F085FB7B685A6880235B029A4207D1E4
:10332000B74B1A68B64B802149020A431A6027E05E
:103330007B685A68A023DB029A420ED1B04B1A6810
:10334000AF4B8021C9020A431A60AD4B1A68AC4BDF
:10335000802149020A431A6012E0A94B1A68A84B5F
:10336000A8490A401A60A64B1A6880235B021340E2
:10337000FB60FB68A24B1A68A14BA3490A401A6084
:103380007B685B68002B15D0FEF7A4FE0300BB61D1
:1033900009E0FEF79FFE0200BB69D31A642B02D935
:1033A000032300F03CFB964B1A6880239B021340DA
:1033B000EFD015E0FEF78EFE0300BB6108E0FEF7DC
:1033C00089FE0200BB69D31A642B01D9032326E3CB
:1033D0008B4B1A6880239B021340F0D100E0C0465B
:1033E0007B681B680222134000D18BE07B68DB689E
:1033F0007B613B6A042B05D03B6A0C2B3ED1FB69F9
:10340000002B3BD17E4B1B680422134004D07B6908
:10341000002B01D1012302E3794B5B687B4A134007
:1034200019007B681B691A02754B0A435A60744B7A
:103430001B68092293431900714B7A690A431A6089
:1034400000F040FC01006E4BDB681B090F221340AB
:103450006F4AD35C0A00DA406E4B1A606E4B1B68F1
:1034600013257C191800FEF7EFFD030023707B196C
:103470001B78002B46D07B191B78D0E27B69002B90
:1034800027D05F4B1B680922934319005C4B7A6974
:103490000A431A60FEF71EFE0300BB6108E0FEF758
:1034A00019FE0200BB69D31A022B01D90323B6E22D
:1034B000534B1B6804221340F1D0514B5B68534AB5
:1034C000134019007B681B691A024D4B0A435A606E
:1034D00018E04B4B1A684A4B01218A431A60FEF7E9
:1034E000F9FD0300BB6108E0FEF7F4FD0200BB69D3
:1034F000D31A022B01D9032391E2414B1B6804220A
:103500001340F1D17B681B681022134000D1A1E069
:103510003B6A002B40D13A4B1A6880239B00134032
:1035200005D07B68DB69002B01D1012377E2344BA6
:103530005B683A4A134019007B685A6A304B0A4369
:103540005A602F4B5B681B02190A7B681B6A1A06BC
:103550002B4B0A435A607B685B6A5B0B013380220A
:1035600012029A40264BDB681B090F210B402849A9
:10357000CB5CDA40274B1A60274B1B6813257C195C
:103580001800FEF761FD030023707B191B78002BE8
:1035900060D07B191B7842E27B68DB69002B3FD04F
:1035A000174B1A68164B802149000A431A60FEF730
:1035B00091FD0300BB6108E0FEF78CFD0200BB69D2
:1035C000D31A022B01D9032329E20D4B1A68802359
:1035D0009B001340F0D00A4B5B68104A134019005F
:1035E0007B685A6A064B0A435A60054B5B681B02AC
:1035F000190A7B681B6A1A06014B0A435A6029E0C4
:1036000000100240FFFFFEFFFFFFFBFFFFE0FFFF98
:10361000944100080400002008000020FF1FFFFF65
:10362000BD4B1A68BC4BBD490A401A60FEF752FDFB
:103630000300BB6108E0FEF74DFD0200BB69D31A31
:10364000022B01D90323EAE1B34B1A6880239B00C4
:103650001340F0D17B681B680822134036D07B688A
:103660005B69002B19D0AC4B1A6DAB4B01210A439F
:103670001A65FEF72FFD0300BB6108E0FEF72AFD87
:103680000200BB69D31A022B01D90323C7E1A24B65
:103690001B6D02221340F1D018E09F4B1A6D9E4B18
:1036A00001218A431A65FEF715FD0300BB6108E09E
:1036B000FEF710FD0200BB69D31A022B01D90323C8
:1036C000ADE1954B1B6D02221340F1D17B681B6865
:1036D0000422134000D1AEE027203B1800221A70CC
:1036E0008D4B9A6B80235B05134009D18A4B9A6BF3
:1036F000894B802149050A439A633B1801221A70BD
:10370000874B1A6880235B0013401AD1844B1A68D8
:10371000834B802149000A431A60FEF7DBFC03005B
:10372000BB6108E0FEF7D6FC0200BB69D31A642B2C
:1037300001D9032373E17A4B1A6880235B0013409D
:10374000F0D07B689A6880235B009A4207D1724B65
:103750001A6D714B802149000A431A6531E07B687C
:103760009B68002B0CD16C4B1A6D6B4B6B490A405C
:103770001A65694B1A6D684B6A490A401A6520E060
:103780007B689A68A023DB009A420ED1624B1A6DC7
:10379000614B8021C9000A431A655F4B1A6D5E4B6D
:1037A000802149000A431A650BE05B4B1A6D5A4BA6
:1037B0005A490A401A65584B1A6D574B59490A40E5
:1037C0001A657B689B68002B15D0FEF783FC03000D
:1037D000BB6109E0FEF77EFC0200BB69D31A524AC6
:1037E000934201D903231AE14B4B1A6D80239B00AE
:1037F0001340EFD014E0FEF76DFC0300BB6109E05D
:10380000FEF768FC0200BB69D31A474A934201D90C
:10381000032304E1404B1A6D80239B001340EFD13A
:103820002723FB181B78012B05D13B4B9A6B3A4B96
:103830003E490A409A637B681B682022134049D0A6
:103840007B689B69002B26D0334B9A68324B012151
:103850000A439A60304B5A6B2F4B01210A435A633B
:10386000334B1A6A324B802189010A431A62FEF7F0
:1038700031FC0300BB6108E0FEF72CFC0200BB69D1
:10388000D31A022B01D90323C9E0234B9B680222E0
:103890001340F1D01EE0204B9A681F4B01218A4350
:1038A0009A60234B1A6A224B22490A401A62FEF799
:1038B00011FC0300BB6108E0FEF70CFC0200BB69D1
:1038C000D31A022B01D90323A9E0134B9B680222D0
:1038D0001340F1D17B689B6A002B00D19EE03B6ACC
:1038E0000C2B00D177E07B689B6A022B58D10A4BE6
:1038F0001A68094B10490A401A60FEF7EBFB0300F7
:10390000BB611BE0FEF7E6FB0200BB69D31A022B8A
:1039100014D9032383E0C04600100240FFFEFFFFDE
:1039200000700040FFFBFFFF88130000FFFFFFEF68
:1039300000000140FFDFFFFFFFFFFFFE3A4B1A6868
:1039400080239B041340DDD1374BDB68374A13409B
:1039500019007B68DA6A7B681B6B1A437B685B6BB8
:103960001A43314B0A43DA602F4B1A682E4B8021E1
:1039700049040A431A60FEF7ADFB0300BB6108E08F
:10398000FEF7A8FB0200BB69D31A022B01D903235F
:1039900045E0254B1A6880239B041340F0D03DE09E
:1039A000214B1A68204B22490A401A60FEF792FB0D
:1039B0000300BB6108E0FEF78DFB0200BB69D31A70
:1039C000022B01D903232AE0174B1A6880239B049A
:1039D0001340F0D122E07B689B6A012B01D10123C7
:1039E0001DE0114BDB68FB61FA6980235B021A4022
:1039F0007B68DB6A9A420FD1FA69F0239B031A4075
:103A00007B681B6B9A4207D1FA69C0231B041A40DA
:103A10007B685B6B9A4201D0012300E00023180011
:103A2000BD460AB0B0BDC04600100240FFFF02FF15
:103A3000FFFFFFFEB0B584B000AF786039607B68EF
:103A4000002B01D1012328E1964B1B680122134072
:103A50003A689A421ED9934B1B680122934319007E
:103A6000904B3A680A431A60FEF734FB0300FB6090
:103A700009E0FEF72FFB0200FB68D31A8A4A934243
:103A800001D9032309E1874B1B68012213403A68DF
:103A90009A42EED17B681B680222134009D0834B07
:103AA000DB68F022934319007B689A687F4B0A43D6
:103AB000DA607B681B680122134000D189E07B68D3
:103AC0005B68022B07D1794B1A6880239B02134055
:103AD00020D10123E1E07B685B68032B07D1734BA6
:103AE0001A6880239B04134014D10123D5E07B681E
:103AF0005B68012B06D16D4B1B680422134009D172
:103B00000123CAE0694B1A6880239B00134001D14E
:103B10000123C2E0654BDB680322934319007B68F5
:103B20005A68624B0A43DA60FEF7D4FA0300FB607E
:103B30007B685B68022B11D109E0FEF7CBFA02002B
:103B4000FB68D31A584A934201D90323A5E0574B87
:103B5000DB680C221340082BEFD13AE07B685B68EE
:103B6000032B11D109E0FEF7B5FA0200FB68D31A66
:103B70004D4A934201D903238FE04C4BDB680C2262
:103B800013400C2BEFD124E07B685B68012B1BD129
:103B900009E0FEF79FFA0200FB68D31A424A9342FB
:103BA00001D9032379E0414BDB680C221340042B3D
:103BB000EFD10EE0FEF78EFA0200FB68D31A3A4A04
:103BC000934201D9032368E0384BDB680C22134091
:103BD000F0D1344B1B68012213403A689A421ED23E
:103BE000304B1B680122934319002E4B3A680A435D
:103BF0001A60FEF76FFA0300FB6009E0FEF76AFA4D
:103C00000200FB68D31A284A934201D9032344E0F7
:103C1000244B1B68012213403A689A42EED17B681C
:103C20001B680422134009D0204BDB68204A134054
:103C300019007B68DA681D4B0A43DA607B681B68F1
:103C4000082213400AD0194BDB681A4A13401900A6
:103C50007B681B69DA00154B0A43DA6000F032F822
:103C60000100124BDB681B090F221340124AD35C80
:103C70000A00DA40114B1A60114B1B680B257C19A6
:103C80001800FEF7E1F9030023707B191B78002B65
:103C900002D07B191B7800E000231800BD4604B059
:103CA000B0BDC04600200240881300000010024052
:103CB000FFF8FFFFFFC7FFFF94410008040000204A
:103CC00008000020B0B58EB000AF4C4BDB68FB6243
:103CD000FA6A0C2313400C2B14D000D97BE0042B80
:103CE00002D0082B0BD076E0444B1B681022134007
:103CF00002D0434B3B637CE0424B3B6379E0424B59
:103D00003B6376E0FB6A9A0C0F231A403F4B9B5CA7
:103D1000BB62FB6A9A0D0323134001337B62374B6E
:103D2000DA6880235B0213401AD0BB6ABB610023B0
:103D3000FB61354A0023B869F969FCF7B5FB02005D
:103D40000B00100019007B6A3B6100237B613A691C
:103D50007B69FCF789FB02000B0013007B6337E0F3
:103D6000264B1B68102213401AD0BB6ABB6000238D
:103D7000FB60234A0023B868F968FCF795FB020052
:103D80000B00100019007B6A3B6000237B603A68DF
:103D90007B68FCF769FB02000B0013007B6317E0F4
:103DA000BB6A180000231900164A0023FCF77CFBAD
:103DB00002000B00100019007B6A1C0000231D008C
:103DC00022002B00FCF750FB02000B0013007B636A
:103DD0007B6B3B630DE0094B5B685B0B0722134079
:103DE0003B623B6A0133802212029A4013003B631C
:103DF000C0463B6B1800BD460EB0B0BD001002407F
:103E000000093D000024F40000127A00A4410008DB
:103E100080B586B000AF786017203B1800221A707A
:103E20007B681B682022134000D1C7E0934B9A6B3C
:103E300080235B05134009D1904B9A6B8F4B8021F7
:103E400049050A439A633B1801221A708C4B1A6881
:103E500080235B0013401AD1894B1A68884B80215C
:103E600049000A431A60FEF735F903003B6108E098
:103E7000FEF730F902003B69D31A642B01D9032302
:103E8000F7E07F4B1A6880235B001340F0D07B4B38
:103E90001A68C0239B031340FB607B685A68C023E9
:103EA0009B031340FA689A4213D07B685A68C02378
:103EB0009B021A40C0239B029A420AD16F4B1A6898
:103EC00080239B021A4080239B029A4201D1012346
:103ED000CFE06A4B1A6DC0239B021340FB60FB6866
:103EE000002B3BD07B685A68C0239B021340FA68C2
:103EF0009A4233D07B681B68202213402ED05F4B40
:103F00001B6D604A1340FB605C4B1A6D5B4B80215C
:103F100009030A431A65594B1A6D584B5A490A400E
:103F20001A65564BFA681A65FA6880235B001340DD
:103F300014D0FEF7CFF803003B6109E0FEF7CAF8A2
:103F400002003B69D31A514A934201D9032390E0FE
:103F50004A4B1A6D80239B001340EFD07B681B688F
:103F6000202213401FD07B685A68C0239B021A404E
:103F7000C0239B029A420CD1404B1B68444A134019
:103F800019007B685A68C0239B031A403B4B0A43C5
:103F90001A603A4B196D7B685A68C0239B021A401D
:103FA000364B0A431A651723FB181B78012B05D1E2
:103FB000324B9A6B314B37490A409A637B681B68D6
:103FC0000122134009D02D4BDB6C032293431900CF
:103FD0007B689A68294B0A43DA647B681B68022273
:103FE000134009D0254BDB6C0C22934319007B68EE
:103FF000DA68224B0A43DA647B681B6804221340A8
:1040000009D01E4BDB6C244A134019007B681A69E7
:104010001A4B0A43DA647B681B680822134009D0F4
:10402000164BDB6C1D4A134019007B685A69134B11
:104030000A43DA647B681B684022134009D00F4BA7
:10404000DB6C174A134019007B68DA690B4B0A4393
:10405000DA647B681B688022134009D0074BDB6C55
:10406000104A134019007B689A69044B0A43DA64CA
:1040700000231800BD4606B080BDC04600100240B7
:1040800000700040FFFFFCFFFFFFF7FF88130000F8
:10409000FFFFCFFFFFFFFFEFFFF3FFFFFFCFFFFFAC
:1040A000FFFFFFFBFFFFF3FF03008218934200D1E5
:1040B000704719700133F9E770B500260C4C0D4DAF
:1040C000641BA410A64209D1002600F019F80A4C7E
:1040D0000A4D641BA410A64205D170BDB300EB5875
:1040E00098470136EEE7B300EB5898470136F2E700
:1040F000B8410008B8410008BC410008B8410008B8
:10410000F8B5C046F8BC08BC9E467047F8B5C04636
:08411000F8BC08BC9E46704794
:104118007E0B0008AE0A0008C60A0008E40A000878
:10412800C60A0008280B0008C60A0008E40A0008A6
:10413800AE0A0008AE0A0008280B0008E40A0008C6
:10414800CE0A0008CE0A0008CE0A0008320B000882
:10415800AE0A0008AE0A0008C60A0008BC0B000830
:10416800C60A0008280B0008C60A0008BC0B00088D
:10417800AE0A0008AE0A0008280B0008BC0B0008AD
:10418800CE0A0008CE0A0008CE0A00080000000087
:1041980000000000010203040607080903040608DA
:0841A8000C101820300000008B
:0841B00054C3FF7F0100000071
:0441B800E900000812
:0441BC00C100000836
:1041C00003000000000020000400000001000000C7
:0400000508001E29A8
:00000001FF
